:100000000C943C000C9459000C9459000C94590029
:100010000C9459000C9459000C9459000C945900FC
:100020000C9459000C9459000C9459000C94220122
:100030000C9459000C9459000C9462010C945900D2
:100040000C9459000C9459000C9459000C945900CC
:100050000C9459000C9459000C9459000C945900BC
:100060000C9459000C945900D600E400E700EA0013
:10007000ED00FB000201100111241FBECFEFD8E0FC
:10008000DEBFCDBF11E0A0E0B1E0E0E3F3E002C0ED
:1000900005900D92A430B107D9F721E0A4E0B1E0BA
:1000A00001C01D92A630B207E1F70E9454010C94E2
:1000B00096010C9400008091020190910301019639
:1000C00090930301809302018135910521F41092F0
:1000D0000301109202012091020130910301ADEC65
:1000E000BCEC0E948701969587959695879590938D
:1000F0000501809304018530910538F481E090E09A
:10010000909305018093040144C08630910538F432
:1001100082E090E090930501809304013AC087301B
:10012000910538F483E090E09093050180930401F9
:1001300030C08830910538F484E090E09093050158
:100140008093040126C08D30910538F485E090E05D
:1001500090930501809304011CC08E30910538F402
:1001600086E090E0909305018093040112C08F30E7
:10017000910538F487E090E09093050180930401A5
:1001800008C0409730F488E090E090930501809398
:100190000401E0910401F09105013197E830F10587
:1001A00008F040C0EC5CFF4F0C94810181E285B9FE
:1001B0008091000190910101019719F481E188B9C2
:1001C000089580E188B9089581E185B9089589E0AD
:1001D00085B908958BE085B908958CE085B9809143
:1001E000000190910101019719F481E288B9089505
:1001F00080E288B908958AE085B998B180E28927BC
:1002000088B9089589E085B9809100019091010134
:10021000019719F481E188B9089580E188B90895BA
:1002200089E185B9089584E39CE0909389008093E7
:100230008800109280008DE08093810082E080939E
:100240006F0008951F920F920FB60F9211242F93F3
:100250003F934F935F936F937F938F939F93AF934E
:10026000BF93EF93FF9384E39CE090938900809386
:1002700088000E945B00FF91EF91BF91AF919F9129
:100280008F917F916F915F914F913F912F910F903F
:100290000FBE0F901F90189582E087BD84BD96E039
:1002A00095BD80936E0008958FEF84B987B91AB811
:1002B00015B818B880E18BB90E9413010E944C0157
:1002C0007894FFCF1F920F920FB60F9211248F9345
:1002D0009F9382E087BD98B181E0892788B980919A
:1002E00000019091010191958195910990930101EF
:1002F000809300019F918F910F900FBE0F901F90E0
:100300001895EE0FFF1F0590F491E02D0994A29F20
:10031000B001B39FC001A39F700D811D1124911DD9
:10032000B29F700D811D1124911D0895F894FFCF87
:04033000FFFFFFFFCD
:00000001FF
