S00D00004C616233432E7372656392
S11300000C943C000C9459000C944E010C9459002F
S11300100C9459000C9459000C9459000C945900F8
S11300200C9459000C9459000C9459000C9415012B
S11300300C9459000C9459000C9459000C945900D8
S11300400C9459000C9459000C9459000C945900C8
S11300500C9459000C9459000C9459000C945900B8
S11300600C9459000C945900D500DA00DD00E0002E
S1130070E300E800EF00F40011241FBECFEFD8E046
S1130080DEBFCDBF11E0A0E0B1E0ECEFF2E002C0D2
S113009005900D92A430B107D9F721E0A4E0B1E0B6
S11300A001C01D92A630B207E1F70E9406010C942C
S11300B07C010C940000809102019091030101964F
S11300C090930301809302018135910521F41092EC
S11300D00301109202012091020130910301ADEC61
S11300E0BCEC0E946D0196958795969587959093A3
S11300F00501809304018530910538F481E090E096
S1130100909305018093040144C08630910538F42E
S113011082E090E090930501809304013AC0873017
S1130120910538F483E090E09093050180930401F5
S113013030C08830910538F484E090E09093050154
S11301408093040126C08D30910538F485E090E059
S113015090930501809304011CC08E30910538F4FE
S113016086E090E0909305018093040112C08F30E3
S1130170910538F487E090E09093050180930401A1
S113018008C0409730F488E090E090930501809394
S11301900401E0910401F09105013197E830F10583
S11301A028F5EC5CFF4F0C94670181E285B980E18E
S11301B088B9089581E185B9089589E085B90895DC
S11301C08BE085B908958CE085B980E288B90895FB
S11301D08AE085B998B180E2892788B9089589E0D1
S11301E085B980E188B9089589E185B9089584E3E2
S11301F09CE09093890080938800109280008DE0A9
S11302008093810082E080936F0008958FEF84B91A
S113021087B91AB88FE08BB982E08DBB88E08093F0
S113022069000E94F7007894FFCF1F920F920FB6D7
S11302300F9211242F933F934F935F936F937F9368
S11302408F939F93AF93BF93EF93FF9384E39CE0CB
S1130250909389008093880080910001909101011E
S1130260019649F418B815B88FEF9FEF90930301E6
S11302708093020102C00E945B00FF91EF91BF9145
S1130280AF919F918F917F916F915F914F913F912A
S11302902F910F900FBE0F901F9018951F920F92E1
S11302A00FB60F9211248F939F9380910001909128
S11302B00101919581959109909301018093000129
S11302C09F918F910F900FBE0F901F901895EE0F76
S11302D0FF1F0590F491E02D0994A29FB001B39FF4
S11302E0C001A39F700D811D1124911DB29F700D3B
S10F02F0811D1124911D0895F894FFCF86
S10702FCFFFFFFFFFE
S9030000FC
