:100000000C9434000C943E000C943E000C943E0082
:100010000C943E000C943E000C943E000C943E0068
:100020000C943E000C943E000C943E000C943E0058
:100030000C943E000C943E000C943E000C943E0048
:100040000C943E000C943E000C943E000C943E0038
:100050000C943E000C943E000C943E000C943E0028
:100060000C943E000C943E0011241FBECFEFD8E04C
:10007000DEBFCDBF0E9440000C9469000C940000CC
:100080008FEF8AB920E030E00AC0019602C080E01C
:1000900090E0803D47E09407C0F32F5F3F4F203D45
:1000A00087E03807A0F385E58BB920E030E00AC08F
:1000B000019602C080E090E0803D47E09407C0F3E5
:1000C0002F5F3F4F203D87E03807A0F38AEA8BB9C6
:0600D000D9CFF894FFCF28
:00000001FF
