:100000000C9434000C9451000C9451000C94510049
:100010000C9451000C9451000C9451000C9451001C
:100020000C9451000C9451000C9451000C9451000C
:100030000C9451000C9451000C9451000C945100FC
:100040000C9451000C9451000C94B0000C9453008B
:100050000C9451000C9451000C9451000C945100DC
:100060000C9451000C94510011241FBECFEFD8E026
:10007000DEBFCDBF11E0A0E0B1E0E6E3F2E002C0F8
:1000800005900D92A631B107D9F721E0A6E1B1E0C4
:1000900001C01D92AB31B207E1F70E9409010C9437
:1000A00019010C9400001F920F920FB60F921124A9
:1000B0008F939F93EF93FF93809116019091170177
:1000C000892B09F58091000190910101019690938F
:1000D000010180930001FC01E85FFE4F8081809365
:1000E000C60080910001909101010C9761F481E0BC
:1000F00090E090931701809316018FEF9FEF9093FC
:1001000001018093000180911601909117010297DF
:10011000F1F4E0911801F0911901EE5FFE4F80813A
:100120008093C600809118019091190101969093D7
:10013000190180931801049751F481E090E09093A5
:100140001701809316011092190110921801FF9166
:10015000EF919F918F910F900FBE0F901F90189568
:100160001F920F920FB60F9211242F934F935F930C
:100170008F939F93EF93FF938091160190911701B6
:100180000197D9F58091000190910101029734F017
:100190008FEF9FEF90930101809300018091000108
:1001A00090910101019690930101809300012091AB
:1001B000C60020931A01FC01E85FFE4F2083909156
:1001C000060180910801981731F04FEF5FEF5093CF
:1001D000010140930001981310C08091070128137A
:1001E0000CC08FEF9FEF909301018093000182E09C
:1001F00090E09093170180931601FF91EF919F91EA
:100200008F915F914F912F910F900FBE0F901F9084
:1002100018951092C00088EB8093C100E2ECF0E0EA
:100220001082108286E880838FEC8093C4007894DB
:06023000FFCFF894FFCFA0
:10023600FFFF427965214869576520417265205262
:06024600656164792100EE
:00000001FF
