S00D00004C616234432E7372656391
S11300000C9434000C9449000C9449000C9449005D
S11300100C9449000C9449000C9449000C94490038
S11300200C9449000C9449000C9449000C94490028
S11300300C9449000C9449000C9449000C94490018
S11300400C9449000C9449000C9449000C94490008
S11300500C9449000C9449000C9449000C944900F8
S11300600C9449000C94490011241FBECFEFD8E032
S1130070DEBFCDBF11E0A0E0B1E0E0E0F1E002C0FE
S113008005900D92A230B107D9F70E944B000C9451
S11300907E000C9400001092C00088E18093C1009F
S11300A0E2ECF0E01082108286E0808387E68093A1
S11300B0C400909100018091C00085FFFCCF909313
S11300C0C6008091C0008823B4F74091C60020E0A8
S11300D030E008C08091C00085FFFCCF4093C6008B
S11300E02F5F3F4F2A303105ACF38091C000882345
S11300F0E4F78091C6004813F8CFDDCFF894FFCF22
S1050100610098
S9030000FC
