:100000000C9434000C943E000C943E000C943E0082
:100010000C943E000C943E000C943E000C943E0068
:100020000C943E000C943E000C943E000C943E0058
:100030000C943E000C943E000C943E000C943E0048
:100040000C943E000C943E000C943E000C943E0038
:100050000C943E000C943E000C943E000C943E0028
:100060000C943E000C943E0011241FBECFEFD8E04C
:10007000DEBFCDBF0E9464000C94A9000C94000068
:1000800082EC8093850087EF80938400109280003B
:1000900085E080938100B09BFECF1092810081E0CB
:1000A00086BB089583EF809385008BEC809384005A
:1000B0001092800085E080938100B09BFECF10926B
:1000C000810081E086BB08958FEF84B987B915B8A8
:1000D00018B881E285B980E188B9C0E0D0E003C0FA
:1000E0000E9440002196C530D105D0F381E185B949
:1000F0000E94400089E085B90E9440008BE085B9EC
:100100000E9440008CE085B980E288B9C0E0D0E070
:1001100003C00E9440002196C530D105D0F38AE08B
:1001200085B9C0E0D0E007C098B180E2892788B9DE
:100130000E9452002196C530D105B0F389E085B9FF
:1001400080E188B90E94400089E185B90E944000A1
:06015000C0CFF894FFCFC0
:00000001FF
