S00D00004C616231422E7372656395
S11300000C9434000C943E000C943E000C943E007E
S11300100C943E000C943E000C943E000C943E0064
S11300200C943E000C943E000C943E000C943E0054
S11300300C943E000C943E000C943E000C943E0044
S11300400C943E000C943E000C943E000C943E0034
S11300500C943E000C943E000C943E000C943E0024
S11300600C943E000C943E0011241FBECFEFD8E048
S1130070DEBFCDBF0E9440000C945A000C940000D7
S11300808FEF8AB914B881E085B91BB880E090E09D
S1130090009739F4189B05C08FEF8BB981E090E08D
S11300A0F7CF81309105A1F7189BF2CF1BB880E000
S10B00B090E0EECFF894FFCFBD
S9030000FC
