:100000000C943C000C945D010C9459000C94590024
:100010000C9459000C9459000C9459000C945900FC
:100020000C9459000C9459000C9459000C94330111
:100030000C9459000C9459000C9459000C945900DC
:100040000C9459000C9459000C9459000C945900CC
:100050000C9459000C9459000C9459000C945900BC
:100060000C9459000C945900D600E400E700EA0013
:10007000ED00FB000201100111241FBECFEFD8E0FC
:10008000DEBFCDBF11E0A0E0B1E0E0E4F3E002C0EC
:1000900005900D92A430B107D9F721E0A4E0B1E0BA
:1000A00001C01D92A830B207E1F70E9422010C9412
:1000B0009E010C9400008091020190910301019631
:1000C00090930301809302018135910521F41092F0
:1000D0000301109202012091020130910301ADEC65
:1000E000BCEC0E948F019695879596958795909385
:1000F0000701809306018530910538F481E090E096
:10010000909307018093060144C08630910538F42E
:1001100082E090E090930701809306013AC0873017
:10012000910538F483E090E09093070180930601F5
:1001300030C08830910538F484E090E09093070156
:100140008093060126C08D30910538F485E090E05B
:1001500090930701809306011CC08E30910538F4FE
:1001600086E090E0909307018093060112C08F30E3
:10017000910538F487E090E09093070180930601A1
:1001800008C0409730F488E090E090930701809396
:100190000601E0910601F09107013197E830F10581
:1001A00008F040C0EC5CFF4F0C94890181E285B9F6
:1001B0008091000190910101019719F481E188B9C2
:1001C000089580E188B9089581E185B9089589E0AD
:1001D00085B908958BE085B908958CE085B9809143
:1001E000000190910101019719F481E288B9089505
:1001F00080E288B908958AE085B998B180E28927BC
:1002000088B9089589E085B9809100019091010134
:10021000019719F481E188B9089580E188B90895BA
:1002200089E185B9089584E39CE0909389008093E7
:100230008800109280008DE08093810082E080939E
:100240006F0008958FEF84B987B91AB815B818B838
:1002500087E08BB981E08DBB83E0809369000E94C9
:1002600013017894FFCF1F920F920FB60F921124B3
:100270002F933F934F935F936F937F938F939F93AE
:10028000AF93BF93EF93FF9384E39CE09093890037
:10029000809388000E945B00FF91EF91BF91AF9126
:1002A0009F918F917F916F915F914F913F912F918E
:1002B0000F900FBE0F901F9018951F920F920FB6C0
:1002C0000F9211248F939F938091040190910501C7
:1002D00001969093050180930401039799F498B1D6
:1002E00081E0892788B9109205011092040180915C
:1002F00000019091010191958195910990930101DF
:10030000809300019F918F910F900FBE0F901F90CF
:100310001895EE0FFF1F0590F491E02D0994A29F10
:10032000B001B39FC001A39F700D811D1124911DC9
:10033000B29F700D811D1124911D0895F894FFCF77
:04034000FFFFFFFFBD
:00000001FF
