S00D00004C616232432E7372656393
S11300000C9434000C943E000C943E000C943E007E
S11300100C943E000C943E000C943E000C943E0064
S11300200C943E000C943E000C943E000C943E0054
S11300300C943E000C943E000C943E000C943E0044
S11300400C943E000C943E000C943E000C943E0034
S11300500C943E000C943E000C943E000C943E0024
S11300600C943E000C943E0011241FBECFEFD8E048
S1130070DEBFCDBF0E9453000C9460000C940000BE
S113008082E090E090938900809388001092800031
S11300908FE080938100B19BFECF1092810082E0BB
S11300A086BB86BB08958FEF87B91AB818B880E16C
S11300B08BB90E94400098B181E0892788B9F9CFB3
S10700C0F894FFCFDE
S9030000FC
