S00F00004C616232415F322E7372656302
S11300000C9434000C943E000C943E000C943E007E
S11300100C943E000C943E000C943E000C943E0064
S11300200C943E000C943E000C943E000C943E0054
S11300300C943E000C943E000C943E000C943E0044
S11300400C943E000C943E000C943E000C943E0034
S11300500C943E000C943E000C943E000C943E0024
S11300600C943E000C943E0011241FBECFEFD8E048
S1130070DEBFCDBF0E9452000C945F000C940000C0
S113008088E09DE39093890080938800109280001B
S11300908DE080938100B19BFECF1092810082E0BD
S11300A086BB089584B1816084B985B18E7F85B99A
S11300B00E94400095B181E0892785B9F9CFF89471
S10500C0FFCF6C
S9030000FC
