:100000000C9434000C943E000C943E000C943E0082
:100010000C943E000C943E000C943E000C943E0068
:100020000C943E000C943E000C943E000C943E0058
:100030000C943E000C943E000C943E000C943E0048
:100040000C943E000C943E000C943E000C943E0038
:100050000C943E000C943E000C943E000C943E0028
:100060000C943E000C943E0011241FBECFEFD8E04C
:10007000DEBFCDBF0E9440000C945F000C940000D6
:100080001092C00088E18093C100E2ECF0E01082A1
:10009000108286E0808380E880838FEC8093C400A8
:1000A0001092C5008091C0008823E4F79091C600AB
:1000B0008091C00085FFFCCF9093C600F3CFF894E9
:0200C000FFCF70
:00000001FF
