S00F00004C616234445F322E73726563FD
S11300000C9434000C9451000C9451000C94510045
S11300100C9451000C9451000C9451000C94510018
S11300200C9451000C9451000C9451000C94510008
S11300300C9451000C9451000C9451000C945100F8
S11300400C9451000C9451000C9491000C945300A6
S11300500C9451000C9451000C9451000C945100D8
S11300600C9451000C94510011241FBECFEFD8E022
S1130070DEBFCDBF11E0A0E0B1E0E6EBF1E002C0ED
S113008005900D92A230B107D9F721E0A2E0B1E0CA
S113009001C01D92A830B207E1F70E94C9000C9478
S11300A0D9000C9400001F920F920FB60F921124E6
S11300B08F939F938091020190910301892B21F4E6
S11300C0809100018093C600809102019091030108
S11300D0019781F480910401909105018A30910582
S11300E04CF40196909305018093040180910701DB
S11300F08093C60080910401909105010A9751F400
S1130100109205011092040182E090E090930301A3
S1130110809302019F918F910F900FBE0F901F90BB
S113012018951F920F920FB60F9211248F939F93DD
S11301308091040190910501892B81F48091020141
S113014090910301029751F08091C60080930701BA
S113015081E090E090930301809302018091020179
S113016090910301029771F49091C6008091070168
S1130170981308C08091C600809307011092030170
S1130180109202019F918F910F900FBE0F901F90BC
S113019018951092C00088EB8093C100E2ECF0E067
S11301A01082108286E8808387E68093C400789466
S10901B0FFCFF894FFCF1D
S10501B66100E2
S9030000FC
