:100000000C9434000C9449000C9449000C94490061
:100010000C9449000C9449000C9449000C9449003C
:100020000C9449000C9449000C9449000C9449002C
:100030000C9449000C9449000C9449000C9449001C
:100040000C9449000C9449000C9449000C9449000C
:100050000C9449000C9449000C9449000C944900FC
:100060000C9449000C94490011241FBECFEFD8E036
:10007000DEBFCDBF11E0A0E0B1E0E2E8F1E002C0F8
:1000800005900D92A231B107D9F70E944B000C9454
:10009000BF000C940000CF93DF93CDB7DEB762971B
:1000A0000FB6F894DEBF0FBECDBF1092C00088E13E
:1000B0008093C100E2ECF0E01082108286E0808341
:1000C0008FEC8093C4008EE0E3E0F1E0DE01119656
:1000D00001900D928A95E1F7409100016091010134
:1000E00082E499E7988B8F8785E691E29A8B898BDA
:1000F0002FEF3FEF2F5F3F4F8091C00085FFFCCF78
:10010000E1E0F0E0EC0FFD1FE20FF31F8081809330
:10011000C6002C30310571F72230310514F02FEF75
:100120003FEF2F5F3F4F8091C0008823E4F790910D
:10013000C600E1E0F0E0EC0FFD1FE20FF31F90833B
:10014000542F8981481711F02FEF3FEF5813E4CF58
:100150009613E2CF2FEF3FEF2F5F3F4F8091C0000C
:1001600085FFFCCFEFE0F0E0EC0FFD1FE20FF31F87
:1001700080818093C6002330310571F7CDCFF8948C
:02018000FFCFAF
:100182004869005765204172652052656164792192
:0201920000006B
:00000001FF
